:100000000C942A000C947E010C9447000C94470039
:100010000C9447000C9447000C9447000C94470044
:100020000C9447000C9447000C9447000C94470034
:100030000C9447000C9447000C9447000C94470024
:100040000C9447000C9447000C9447000C94470014
:100050000C94470011241FBECFE5D8E0DEBFCDBF12
:1000600010E0A0E6B0E0ECEFF7E002C005900D92E2
:10007000A43AB107D9F720E0A4EAB0E001C01D928C
:10008000AA3BB207E1F70E9450010C94FC030C94C8
:1000900000009BB790649BBF813059F038F08230EC
:1000A00071F08330A1F485B781600BC085B78E7F76
:1000B00002C085B7816085BF85B78D7F05C085B7D4
:1000C0008E7F85BF85B7826085BF80E0089581E01F
:1000D00008950F931F93CF93DF931092A500109272
:1000E000A4001092A7001092A6001092A9001092EE
:1000F000A8001092AB001092AA001092AD001092CE
:10010000AC0004E110E0C0E1D0E01092AF0010922A
:10011000AE000E948903BE010E9415039093B100B6
:100120008093B000880F991F880F991FFC01EC592C
:10013000FF4F808191819093B7008093B6008281B8
:1001400093819093B9008093B8000E948903BE0107
:100150000E9415039093B1008093B000880F991FFF
:10016000880F991FFC01EC59FF4F8081918190937A
:10017000B3008093B200828193819093B500809305
:10018000B4008091B6000E94AB018091B8000E943B
:10019000CB018091B2000E94AB018091B4000E941B
:1001A000CB0180E00E94AB0180E00E94CB018091F6
:1001B000AE009091AF002091AC003091AD0082175D
:1001C000930720F12091B6003091B7003093A5003D
:1001D0002093A4002091B8003091B9003093A7007B
:1001E0002093A6002091B2003091B3003093A90073
:1001F0002093A8002091B4003091B5003093AB005B
:100200002093AA009093AD008093AC000150110997
:1002100009F07BCFDF91CF911F910F910895CF937C
:10022000DF9380E00E94AB0180E00E94CB018091CF
:10023000A4009091A5009093B7008093B6008091A0
:10024000A6009091A7009093B9008093B800809188
:10025000A8009091A9009093B3008093B200809180
:10026000AA009091AB009093B5008093B400F894ED
:10027000CAE0D0E08091B6000E94AB018091B80046
:100280000E94CB018091B2000E94AB018091B4002A
:100290000E94CB01219771F77894DF91CF91089557
:1002A0000E94A3010E94A8012FEF89E698E1215046
:1002B00080409040E1F700C0000081E00E944900CA
:1002C00078940E9469002FEF81E19AE721508040E5
:1002D0009040E1F700C000000E940F0180E00E9402
:1002E000AB0180E00E94CB012FEF81E19AE7215022
:1002F00080409040E1F700C00000E3CF1F920F92D2
:100300000FB60F9211242F938F939F9320B380B336
:100310002695269526958695869528278091AE0068
:100320009091AF0020FF02C0019601C00197909309
:10033000AF008093AE009F918F912F910F900FBED1
:100340000F901F9018951BBC1ABC81EA8FBD0895B1
:100350008C9A8D9A0895682F70E080E090E00E945A
:100360001C022DEC3CEC4CE05FE30E94800220E09C
:100370003FEF4FE757E40E9480020E94EB016ABD05
:100380007BBD2FEF89E698E1215080409040E1F756
:1003900000C000000895682F70E080E090E00E94A7
:1003A0001C022DEC3CEC4CE05FE30E94800220E05C
:1003B0003FEF4FE757E40E9480020E94EB0168BDC7
:1003C00079BD2FEF89E698E1215080409040E1F718
:1003D00000C0000008950E945F0288F09F5798F0C7
:1003E000B92F9927B751B0F0E1F0660F771F881F3A
:1003F000991F1AF0BA95C9F714C0B13091F00E9454
:100400007902B1E008950C947902672F782F88273C
:10041000B85F39F0B93FCCF3869577956795B3957A
:10042000D9F73EF490958095709561957F4F8F4FE9
:100430009F4F0895E89409C097FB3EF490958095EE
:10044000709561957F4F8F4F9F4F9923A9F0F92F9A
:1004500096E9BB279395F695879577956795B79518
:10046000F111F8CFFAF4BB0F11F460FF1BC06F5FFE
:100470007F4F8F4F9F4F16C0882311F096E911C010
:10048000772321F09EE8872F762F05C0662371F031
:1004900096E8862F70E060E02AF09A95660F771F45
:1004A000881FDAF7880F9695879597F9089557FD75
:1004B0009058440F551F59F05F3F71F04795880FD2
:1004C00097FB991F61F09F3F79F087950895121669
:1004D00013061406551FF2CF4695F1DF08C0161615
:1004E00017061806991FF1CF8695710561050894C6
:1004F0000895E894BB2766277727CB0197F90895DD
:100500000E9493020C9404030E94F60238F00E94A9
:10051000FD0220F0952311F00C94ED020C94F302EF
:1005200011240C947A020E94570270F3959FC1F334
:10053000950F50E0551F629FF001729FBB27F00D91
:10054000B11D639FAA27F00DB11DAA1F649F6627E6
:10055000B00DA11D661F829F2227B00DA11D621F35
:10056000739FB00DA11D621F839FA00D611D221FEF
:10057000749F3327A00D611D231F849F600D211DD3
:10058000822F762F6A2F11249F5750409AF0F1F056
:1005900088234AF0EE0FFF1FBB1F661F771F881FBF
:1005A00091505040A9F79E3F510580F00C94ED0208
:1005B0000C947A025F3FE4F3983ED4F386957795E6
:1005C0006795B795F795E7959F5FC1F7FE2B880F65
:1005D000911D9695879597F9089597F99F6780E8FB
:1005E00070E060E008959FEF80EC089500240A9485
:1005F0001616170618060906089500240A941216FE
:100600001306140605060895092E0394000C11F430
:10061000882352F0BB0F40F4BF2B11F460FF04C0DD
:100620006F5F7F4F8F4F9F4F089597FB072E16F4F4
:10063000009407D077FD09D00E94290307FC05D05C
:100640003EF4909581959F4F0895709561957F4FE9
:100650000895AA1BBB1B51E107C0AA1FBB1FA61709
:10066000B70710F0A61BB70B881F991F5A95A9F75B
:1006700080959095BC01CD0108958F929F92AF9285
:10068000BF92CF92DF92EF92FF92CF93DF93EC0174
:10069000688179818A819B81611571058105910548
:1006A00021F464E279ED8BE597E02DE133EF41E051
:1006B00050E00E94990349015A019B01AC01A7EA4D
:1006C000B1E40E94B8036B017C01ACEEB4EFA5016C
:1006D00094010E94C603DC01CB018C0D9D1DAE1D53
:1006E000BF1DB7FF03C00197A109B0488883998354
:1006F000AA83BB839F77DF91CF91FF90EF90DF902C
:10070000CF90BF90AF909F908F9008950E943D032F
:10071000089580E690E00E943D030895A0E0B0E0D7
:100720008093600090936100A0936200B093630097
:100730000895052E97FB1EF400940E94B00357FD08
:1007400007D00E94CB0307FC03D04EF40C94B003F7
:1007500050954095309521953F4F4F4F5F4F0895ED
:1007600090958095709561957F4F8F4F9F4F08951D
:100770000E94ED03A59F900DB49F900DA49F800D46
:10078000911D11240895B7FF0C94B8030E94B8037B
:10079000821B930B0895A1E21A2EAA1BBB1BFD011D
:1007A0000DC0AA1FBB1FEE1FFF1FA217B307E40750
:1007B000F50720F0A21BB30BE40BF50B661F771FA8
:1007C000881F991F1A9469F7609570958095909588
:1007D0009B01AC01BD01CF010895A29FB001B39F61
:1007E000C001A39F700D811D1124911DB29F700D3A
:0C07F000811D1124911D0895F894FFCF85
:1007FC0001000000000028000000550000008200ED
:10080C000000AF001E0028001E0055001E008200D4
:10081C001E00AF003C0028003C0055003C0082004C
:10082C003C00AF005A0028005A0055005A008200C4
:04083C005A00AF00AF
:00000001FF
